{
  "_format": "hh-sol-artifact-1",
  "contractName": "IndexSwap",
  "sourceName": "contracts/IndexSwap.sol",
  "abi": [
    {
      "inputs": [
        {
          "internalType": "address",
          "name": "_oracal",
          "type": "address"
        },
        {
          "internalType": "address",
          "name": "_outAssest",
          "type": "address"
        },
        {
          "internalType": "address",
          "name": "_pancakeSwapAddress",
          "type": "address"
        },
        {
          "internalType": "address",
          "name": "_vault",
          "type": "address"
        }
      ],
      "stateMutability": "nonpayable",
      "type": "constructor"
    },
    {
      "anonymous": false,
      "inputs": [
        {
          "indexed": true,
          "internalType": "address",
          "name": "owner",
          "type": "address"
        },
        {
          "indexed": true,
          "internalType": "address",
          "name": "spender",
          "type": "address"
        },
        {
          "indexed": false,
          "internalType": "uint256",
          "name": "value",
          "type": "uint256"
        }
      ],
      "name": "Approval",
      "type": "event"
    },
    {
      "anonymous": false,
      "inputs": [],
      "name": "LOG_PUBLIC_SWAP_ENABLED",
      "type": "event"
    },
    {
      "anonymous": false,
      "inputs": [
        {
          "indexed": true,
          "internalType": "address",
          "name": "previousOwner",
          "type": "address"
        },
        {
          "indexed": true,
          "internalType": "address",
          "name": "newOwner",
          "type": "address"
        }
      ],
      "name": "OwnershipTransferred",
      "type": "event"
    },
    {
      "anonymous": false,
      "inputs": [
        {
          "indexed": true,
          "internalType": "address",
          "name": "from",
          "type": "address"
        },
        {
          "indexed": true,
          "internalType": "address",
          "name": "to",
          "type": "address"
        },
        {
          "indexed": false,
          "internalType": "uint256",
          "name": "value",
          "type": "uint256"
        }
      ],
      "name": "Transfer",
      "type": "event"
    },
    {
      "inputs": [],
      "name": "VERSION_NUMBER",
      "outputs": [
        {
          "internalType": "uint256",
          "name": "",
          "type": "uint256"
        }
      ],
      "stateMutability": "view",
      "type": "function"
    },
    {
      "inputs": [
        {
          "internalType": "address",
          "name": "owner",
          "type": "address"
        },
        {
          "internalType": "address",
          "name": "spender",
          "type": "address"
        }
      ],
      "name": "allowance",
      "outputs": [
        {
          "internalType": "uint256",
          "name": "",
          "type": "uint256"
        }
      ],
      "stateMutability": "view",
      "type": "function"
    },
    {
      "inputs": [
        {
          "internalType": "address",
          "name": "spender",
          "type": "address"
        },
        {
          "internalType": "uint256",
          "name": "amount",
          "type": "uint256"
        }
      ],
      "name": "approve",
      "outputs": [
        {
          "internalType": "bool",
          "name": "",
          "type": "bool"
        }
      ],
      "stateMutability": "nonpayable",
      "type": "function"
    },
    {
      "inputs": [
        {
          "internalType": "address",
          "name": "account",
          "type": "address"
        }
      ],
      "name": "balanceOf",
      "outputs": [
        {
          "internalType": "uint256",
          "name": "",
          "type": "uint256"
        }
      ],
      "stateMutability": "view",
      "type": "function"
    },
    {
      "inputs": [
        {
          "internalType": "uint256",
          "name": "amount",
          "type": "uint256"
        }
      ],
      "name": "burn",
      "outputs": [],
      "stateMutability": "nonpayable",
      "type": "function"
    },
    {
      "inputs": [
        {
          "internalType": "address",
          "name": "account",
          "type": "address"
        },
        {
          "internalType": "uint256",
          "name": "amount",
          "type": "uint256"
        }
      ],
      "name": "burnFrom",
      "outputs": [],
      "stateMutability": "nonpayable",
      "type": "function"
    },
    {
      "inputs": [],
      "name": "currentRate",
      "outputs": [
        {
          "internalType": "uint256",
          "name": "numerator",
          "type": "uint256"
        },
        {
          "internalType": "uint256",
          "name": "denominator",
          "type": "uint256"
        }
      ],
      "stateMutability": "view",
      "type": "function"
    },
    {
      "inputs": [],
      "name": "decimals",
      "outputs": [
        {
          "internalType": "uint8",
          "name": "",
          "type": "uint8"
        }
      ],
      "stateMutability": "view",
      "type": "function"
    },
    {
      "inputs": [
        {
          "internalType": "address",
          "name": "spender",
          "type": "address"
        },
        {
          "internalType": "uint256",
          "name": "subtractedValue",
          "type": "uint256"
        }
      ],
      "name": "decreaseAllowance",
      "outputs": [
        {
          "internalType": "bool",
          "name": "",
          "type": "bool"
        }
      ],
      "stateMutability": "nonpayable",
      "type": "function"
    },
    {
      "inputs": [],
      "name": "getETH",
      "outputs": [
        {
          "internalType": "address",
          "name": "",
          "type": "address"
        }
      ],
      "stateMutability": "view",
      "type": "function"
    },
    {
      "inputs": [
        {
          "internalType": "address",
          "name": "crypto",
          "type": "address"
        }
      ],
      "name": "getPathForETH",
      "outputs": [
        {
          "internalType": "address[]",
          "name": "",
          "type": "address[]"
        }
      ],
      "stateMutability": "view",
      "type": "function"
    },
    {
      "inputs": [
        {
          "internalType": "address",
          "name": "token",
          "type": "address"
        }
      ],
      "name": "getPathForToken",
      "outputs": [
        {
          "internalType": "address[]",
          "name": "",
          "type": "address[]"
        }
      ],
      "stateMutability": "view",
      "type": "function"
    },
    {
      "inputs": [
        {
          "internalType": "address",
          "name": "spender",
          "type": "address"
        },
        {
          "internalType": "uint256",
          "name": "addedValue",
          "type": "uint256"
        }
      ],
      "name": "increaseAllowance",
      "outputs": [
        {
          "internalType": "bool",
          "name": "",
          "type": "bool"
        }
      ],
      "stateMutability": "nonpayable",
      "type": "function"
    },
    {
      "inputs": [],
      "name": "indexPrice",
      "outputs": [
        {
          "internalType": "uint256",
          "name": "",
          "type": "uint256"
        }
      ],
      "stateMutability": "view",
      "type": "function"
    },
    {
      "inputs": [
        {
          "internalType": "address[]",
          "name": "tokens",
          "type": "address[]"
        },
        {
          "internalType": "uint96[]",
          "name": "denorms",
          "type": "uint96[]"
        }
      ],
      "name": "initialize",
      "outputs": [],
      "stateMutability": "nonpayable",
      "type": "function"
    },
    {
      "inputs": [],
      "name": "initializeDefult",
      "outputs": [],
      "stateMutability": "nonpayable",
      "type": "function"
    },
    {
      "inputs": [
        {
          "internalType": "uint256",
          "name": "cryptoAmount",
          "type": "uint256"
        }
      ],
      "name": "investInFund",
      "outputs": [],
      "stateMutability": "payable",
      "type": "function"
    },
    {
      "inputs": [],
      "name": "name",
      "outputs": [
        {
          "internalType": "string",
          "name": "",
          "type": "string"
        }
      ],
      "stateMutability": "view",
      "type": "function"
    },
    {
      "inputs": [],
      "name": "owner",
      "outputs": [
        {
          "internalType": "address",
          "name": "",
          "type": "address"
        }
      ],
      "stateMutability": "view",
      "type": "function"
    },
    {
      "inputs": [],
      "name": "pancakeSwapRouter",
      "outputs": [
        {
          "internalType": "contract IUniswapV2Router02",
          "name": "",
          "type": "address"
        }
      ],
      "stateMutability": "view",
      "type": "function"
    },
    {
      "inputs": [],
      "name": "renounceOwnership",
      "outputs": [],
      "stateMutability": "nonpayable",
      "type": "function"
    },
    {
      "inputs": [],
      "name": "symbol",
      "outputs": [
        {
          "internalType": "string",
          "name": "",
          "type": "string"
        }
      ],
      "stateMutability": "view",
      "type": "function"
    },
    {
      "inputs": [],
      "name": "totalSupply",
      "outputs": [
        {
          "internalType": "uint256",
          "name": "",
          "type": "uint256"
        }
      ],
      "stateMutability": "view",
      "type": "function"
    },
    {
      "inputs": [
        {
          "internalType": "address",
          "name": "to",
          "type": "address"
        },
        {
          "internalType": "uint256",
          "name": "amount",
          "type": "uint256"
        }
      ],
      "name": "transfer",
      "outputs": [
        {
          "internalType": "bool",
          "name": "",
          "type": "bool"
        }
      ],
      "stateMutability": "nonpayable",
      "type": "function"
    },
    {
      "inputs": [
        {
          "internalType": "address",
          "name": "from",
          "type": "address"
        },
        {
          "internalType": "address",
          "name": "to",
          "type": "address"
        },
        {
          "internalType": "uint256",
          "name": "amount",
          "type": "uint256"
        }
      ],
      "name": "transferFrom",
      "outputs": [
        {
          "internalType": "bool",
          "name": "",
          "type": "bool"
        }
      ],
      "stateMutability": "nonpayable",
      "type": "function"
    },
    {
      "inputs": [
        {
          "internalType": "address",
          "name": "newOwner",
          "type": "address"
        }
      ],
      "name": "transferOwnership",
      "outputs": [],
      "stateMutability": "nonpayable",
      "type": "function"
    },
    {
      "inputs": [
        {
          "internalType": "uint256",
          "name": "_numerator",
          "type": "uint256"
        },
        {
          "internalType": "uint256",
          "name": "_denominator",
          "type": "uint256"
        }
      ],
      "name": "updateRate",
      "outputs": [],
      "stateMutability": "nonpayable",
      "type": "function"
    },
    {
      "inputs": [
        {
          "internalType": "uint256",
          "name": "tokenAmount",
          "type": "uint256"
        }
      ],
      "name": "withdrawFromFundNew",
      "outputs": [],
      "stateMutability": "payable",
      "type": "function"
    },
    {
      "stateMutability": "payable",
      "type": "receive"
    }
  ],
  "bytecode": "0x600880546001600160a01b0319167367c9e63b7288b7bf88ce114c474ce2fb50ebc8f01790556101c0604052734b1851167f74ff108a994872a160f1d6772d474b6080908152738babbb98678facc7342735486c851abd7a0d17ca60a05273bf0646fa5abbff6af50a9c40d5e621835219d38460c05273cc00177908830ce1644aeb4ad507fda3789128af60e052732f9fd65e3bb89b68a8e2abd68db25f5c348f68ee61010052738a9424745056eb399fd19a0ec26a14316684e27461012052730bbf12a9ccd7cd0e23da21efd3bb16ba807ab06961014052738d908a42fd847c80eeb4498de43469882436c8ff610160527362955c6ca8cd74f8773927b880966b7e70ad45676101805273b7a58582df45dba8ad346c6a51fdb796d64e08986101a0526200013390600990600a620002f3565b506040805161014081018252600180825260208201819052918101829052606081018290526080810182905260a0810182905260c0810182905260e0810182905261010081018290526101208101919091526200019590601390600a62000350565b50348015620001a357600080fd5b50604051620029f6380380620029f6833981016040819052620001c691620004a2565b60405180604001604052806007815260200166494e4445584c5960c81b8152506040518060400160405280600381526020016209288b60eb1b81525081600390805190602001906200021a929190620003f1565b50805162000230906004906020840190620003f1565b5050506200024d620002476200029d60201b60201c565b620002a1565b600680546001600160a01b03199081166001600160a01b0394851617909155602080548216958416959095179094556008805485169183169190911790556021805490931691161790556200053c565b3390565b600580546001600160a01b038381166001600160a01b0319831681179093556040519116919082907f8be0079c531659141344cd1fd0a4f28419497f9722a3daafe3b4186f6b6457e090600090a35050565b82600a81019282156200033e579160200282015b828111156200033e57825182546001600160a01b0319166001600160a01b0390911617825560209092019160019091019062000307565b506200034c9291506200046e565b5090565b6005830191839082156200033e5791602002820160005b83821115620003ad57835183826101000a8154816001600160601b03021916908360ff1602179055509260200192600c01602081600b0104928301926001030262000367565b8015620003e25782816101000a8154906001600160601b030219169055600c01602081600b01049283019260010302620003ad565b50506200034c9291506200046e565b828054620003ff90620004ff565b90600052602060002090601f0160209004810192826200042357600085556200033e565b82601f106200043e57805160ff19168380011785556200033e565b828001600101855582156200033e579182015b828111156200033e57825182559160200191906001019062000451565b5b808211156200034c57600081556001016200046f565b80516001600160a01b03811681146200049d57600080fd5b919050565b60008060008060808587031215620004b957600080fd5b620004c48562000485565b9350620004d46020860162000485565b9250620004e46040860162000485565b9150620004f46060860162000485565b905092959194509250565b600181811c908216806200051457607f821691505b602082108114156200053657634e487b7160e01b600052602260045260246000fd5b50919050565b6124aa806200054c6000396000f3fe6080604052600436106101bb5760003560e01c8063715018a6116100ec578063a457c2d71161008a578063ca0e7ed511610064578063ca0e7ed5146104c1578063dd62ed3e146104e1578063f2fde38b14610501578063f9f8bdb71461052157600080fd5b8063a457c2d714610454578063a9059cbb14610474578063b0849c1c1461049457600080fd5b806381a8e605116100c657806381a8e605146103ee5780638da5cb5b14610401578063955a333b1461041f57806395d89b411461043f57600080fd5b8063715018a6146103a457806379cc6790146103b95780638025e303146103d957600080fd5b80632455899511610159578063405abb4111610133578063405abb411461031b57806342966c681461033b5780635bab42a11461035b57806370a082311461036e57600080fd5b806324558995146102bf578063313ce567146102df57806339509351146102fb57600080fd5b806310bace8c1161019557806310bace8c1461023957806314f6c3be1461025d57806318160ddd1461028a57806323b872dd1461029f57600080fd5b806306fdde03146101c7578063095ea7b3146101f25780630c2cd2cd1461022257600080fd5b366101c257005b600080fd5b3480156101d357600080fd5b506101dc610551565b6040516101e99190611f16565b60405180910390f35b3480156101fe57600080fd5b5061021261020d366004611f5e565b6105e3565b60405190151581526020016101e9565b34801561022e57600080fd5b506102376105fb565b005b34801561024557600080fd5b5061024f60075481565b6040519081526020016101e9565b34801561026957600080fd5b50610272610969565b6040516001600160a01b0390911681526020016101e9565b34801561029657600080fd5b5060025461024f565b3480156102ab57600080fd5b506102126102ba366004611f8a565b6109dc565b3480156102cb57600080fd5b50600654610272906001600160a01b031681565b3480156102eb57600080fd5b50604051601281526020016101e9565b34801561030757600080fd5b50610212610316366004611f5e565b610a00565b34801561032757600080fd5b50610237610336366004611fcb565b610a22565b34801561034757600080fd5b50610237610356366004611fed565b610a41565b610237610369366004611fed565b610a4e565b34801561037a57600080fd5b5061024f610389366004612006565b6001600160a01b031660009081526020819052604090205490565b3480156103b057600080fd5b50610237610c7a565b3480156103c557600080fd5b506102376103d4366004611f5e565b610cb0565b3480156103e557600080fd5b5061024f600181565b6102376103fc366004611fed565b610cc9565b34801561040d57600080fd5b506005546001600160a01b0316610272565b34801561042b57600080fd5b5061023761043a36600461206f565b610ec6565b34801561044b57600080fd5b506101dc6111bb565b34801561046057600080fd5b5061021261046f366004611f5e565b6111ca565b34801561048057600080fd5b5061021261048f366004611f5e565b611245565b3480156104a057600080fd5b506104b46104af366004612006565b611253565b6040516101e9919061211f565b3480156104cd57600080fd5b506104b46104dc366004612006565b61134a565b3480156104ed57600080fd5b5061024f6104fc366004612132565b611413565b34801561050d57600080fd5b5061023761051c366004612006565b61143e565b34801561052d57600080fd5b50601e54601f5461053c919082565b604080519283526020830191909152016101e9565b6060600380546105609061216b565b80601f016020809104026020016040519081016040528092919081815260200182805461058c9061216b565b80156105d95780601f106105ae576101008083540402835291602001916105d9565b820191906000526020600020905b8154815290600101906020018083116105bc57829003601f168201915b5050505050905090565b6000336105f18185856114d6565b5060019392505050565b6005546001600160a01b0316331461062e5760405162461bcd60e51b8152600401610625906121a6565b60405180910390fd5b600a600080805b8381101561091b576040805160c0810182526001815264ffffffffff42166020820152908101601383600a811061066e5761066e6121db565b60029182820401919006600c029054906101000a90046001600160601b03166001600160601b03168152602001601383600a81106106ae576106ae6121db565b60029182820401919006600c029054906101000a90046001600160601b03166001600160601b031681526020018260ff168152602001600081525060196000600984600a8110610700576107006121db565b01546001600160a01b0316815260208082019290925260409081016000208351815493850151928501516060860151608087015165ffffffffffff1990961692151565ffffffffff0019169290921761010064ffffffffff90951694909402939093176601000000000000600160f01b031916600160301b6001600160601b03948516026bffffffffffffffffffffffff60901b191617600160901b93909116929092029190911760ff60f01b1916600160f01b60ff9093169290920291909117815560a0909101516001909101556018600982600a81106107e4576107e46121db565b015481546001810183556000928352602080842090910180546001600160a01b0319166001600160a01b039384161790555460188054919092169163afa998609185908110610835576108356121db565b60009182526020909120015460215460405160e084901b6001600160e01b03191681526001600160a01b03928316600482015291166024820152604401602060405180830381865afa15801561088f573d6000803e3d6000fd5b505050506040513d601f19601f820116820180604052508101906108b391906121f1565b90506108bf83826115fb565b925061090584601384600a81106108d8576108d86121db565b60029182820401919006600c029054906101000a90046001600160601b03166001600160601b031661160e565b935050808061091390612220565b915050610635565b50601a82905561092b8184611660565b601b55601d805460ff191660011790556040517f183bed17d33ee5be9a47bb997aee6a152d84a34309cdb66f76301de0a40a138990600090a1505050565b600654604080516315ab88c960e31b815290516000926001600160a01b03169163ad5c46489160048083019260209291908290030181865afa1580156109b3573d6000803e3d6000fd5b505050506040513d601f19601f820116820180604052508101906109d7919061223b565b905090565b6000336109ea85828561166c565b6109f58585856116e0565b506001949350505050565b6000336105f1818585610a138383611413565b610a1d9190612258565b6114d6565b81610a2c57600080fd5b80610a3657600080fd5b601e91909155601f55565b610a4b33826118ae565b50565b6000610a5b42600f612258565b90503460005b601854811015610bd357600060188281548110610a8057610a806121db565b60009182526020808320909101546001600160a01b0316808352601982526040808420815160c081018352815460ff8082161515835264ffffffffff610100830416968301969096526001600160601b03600160301b82048116948301859052600160901b8204166060830152600160f01b900490941660808501526001015460a0840152601a54919450919291610b249190610b1e9088906119f4565b90611660565b6006549091506001600160a01b0316637ff36ab5826000610b4487611253565b6008546040516001600160e01b031960e087901b168152610b759392916001600160a01b0316908d90600401612270565b60006040518083038185885af1158015610b93573d6000803e3d6000fd5b50505050506040513d6000823e601f3d908101601f19168201604052610bbc91908101906122bb565b505050508080610bcb90612220565b915050610a61565b506000610bdf84611a00565b9050610beb3382611b53565b604051600090339047908381818185875af1925050503d8060008114610c2d576040519150601f19603f3d011682016040523d82523d6000602084013e610c32565b606091505b5050905080610c735760405162461bcd60e51b815260206004820152600d60248201526c1c99599d5b990819985a5b1959609a1b6044820152606401610625565b5050505050565b6005546001600160a01b03163314610ca45760405162461bcd60e51b8152600401610625906121a6565b610cae6000611c32565b565b610cbb82338361166c565b610cc582826118ae565b5050565b33600090815260208190526040902054811115610d165760405162461bcd60e51b815260206004820152600b60248201526a6e6f742062616c616e636560a81b6044820152606401610625565b6000610d2342600f612258565b90506000610d3060025490565b9050610d3c33846118ae565b60005b601854811015610ec057600060188281548110610d5e57610d5e6121db565b60009182526020822001546008546040516370a0823160e01b81526001600160a01b0391821660048201529116925082919082906370a0823190602401602060405180830381865afa158015610db8573d6000803e3d6000fd5b505050506040513d601f19601f82011682018060405250810190610ddc91906121f1565b90506000610dee86610b1e848b6119f4565b600854909150610e0a9085906001600160a01b03163084611c84565b600654610e229085906001600160a01b031683611dc2565b6006546001600160a01b03166318cbafe5826000610e3f8861134a565b338c6040518663ffffffff1660e01b8152600401610e61959493929190612379565b6000604051808303816000875af1158015610e80573d6000803e3d6000fd5b505050506040513d6000823e601f3d908101601f19168201604052610ea891908101906122bb565b50505050508080610eb890612220565b915050610d3f565b50505050565b6005546001600160a01b03163314610ef05760405162461bcd60e51b8152600401610625906121a6565b60185415610f2e5760405162461bcd60e51b815260206004820152600b60248201526a125392551250531256915160aa1b6044820152606401610625565b826000805b82811015611171576040805160c0810182526001815264ffffffffff42166020820152908101868684818110610f6b57610f6b6121db565b9050602002016020810190610f8091906123b5565b6001600160601b03168152602001868684818110610fa057610fa06121db565b9050602002016020810190610fb591906123b5565b6001600160601b031681526020018260ff168152602001600081525060196000898985818110610fe757610fe76121db565b9050602002016020810190610ffc9190612006565b6001600160a01b0316815260208082019290925260409081016000208351815493850151928501516060860151608087015165ffffffffffff1990961692151565ffffffffff0019169290921761010064ffffffffff90951694909402939093176601000000000000600160f01b031916600160301b6001600160601b03948516026bffffffffffffffffffffffff60901b191617600160901b93909116929092029190911760ff60f01b1916600160f01b60ff9093169290920291909117815560a09091015160019091015560188787838181106110dd576110dd6121db565b90506020020160208101906110f29190612006565b81546001810183556000928352602090922090910180546001600160a01b0319166001600160a01b0390921691909117905561115d8286868481811061113a5761113a6121db565b905060200201602081019061114f91906123b5565b6001600160601b031661160e565b91508061116981612220565b915050610f33565b50601a819055601d805460ff19166001908117909155601b556040517f183bed17d33ee5be9a47bb997aee6a152d84a34309cdb66f76301de0a40a138990600090a1505050505050565b6060600480546105609061216b565b600033816111d88286611413565b9050838110156112385760405162461bcd60e51b815260206004820152602560248201527f45524332303a2064656372656173656420616c6c6f77616e63652062656c6f77604482015264207a65726f60d81b6064820152608401610625565b6109f582868684036114d6565b6000336105f18185856116e0565b604080516002808252606080830184529260009291906020830190803683375050600654604080516315ab88c960e31b815290519394506001600160a01b039091169263ad5c4648925060048083019260209291908290030181865afa1580156112c1573d6000803e3d6000fd5b505050506040513d601f19601f820116820180604052508101906112e5919061223b565b816000815181106112f8576112f86121db565b60200260200101906001600160a01b031690816001600160a01b031681525050828160018151811061132c5761132c6121db565b6001600160a01b039092166020928302919091019091015292915050565b604080516002808252606080830184529260009291906020830190803683370190505090508281600081518110611383576113836121db565b6001600160a01b03928316602091820292909201810191909152600654604080516315ab88c960e31b81529051919093169263ad5c46489260048083019391928290030181865afa1580156113dc573d6000803e3d6000fd5b505050506040513d601f19601f82011682018060405250810190611400919061223b565b8160018151811061132c5761132c6121db565b6001600160a01b03918216600090815260016020908152604080832093909416825291909152205490565b6005546001600160a01b031633146114685760405162461bcd60e51b8152600401610625906121a6565b6001600160a01b0381166114cd5760405162461bcd60e51b815260206004820152602660248201527f4f776e61626c653a206e6577206f776e657220697320746865207a65726f206160448201526564647265737360d01b6064820152608401610625565b610a4b81611c32565b6001600160a01b0383166115385760405162461bcd60e51b8152602060048201526024808201527f45524332303a20617070726f76652066726f6d20746865207a65726f206164646044820152637265737360e01b6064820152608401610625565b6001600160a01b0382166115995760405162461bcd60e51b815260206004820152602260248201527f45524332303a20617070726f766520746f20746865207a65726f206164647265604482015261737360f01b6064820152608401610625565b6001600160a01b0383811660008181526001602090815260408083209487168084529482529182902085905590518481527f8c5be1e5ebec7d5bd14f71427d1e84f3dd0314c0f7b2291e5b200ac8c7c3b92591015b60405180910390a3505050565b60006116078284612258565b9392505050565b60008061161b8385612258565b9050838110156116075760405162461bcd60e51b815260206004820152601060248201526f4552525f4144445f4f564552464c4f5760801b6044820152606401610625565b600061160782846123de565b60006116788484611413565b90506000198114610ec057818110156116d35760405162461bcd60e51b815260206004820152601d60248201527f45524332303a20696e73756666696369656e7420616c6c6f77616e63650000006044820152606401610625565b610ec084848484036114d6565b6001600160a01b0383166117445760405162461bcd60e51b815260206004820152602560248201527f45524332303a207472616e736665722066726f6d20746865207a65726f206164604482015264647265737360d81b6064820152608401610625565b6001600160a01b0382166117a65760405162461bcd60e51b815260206004820152602360248201527f45524332303a207472616e7366657220746f20746865207a65726f206164647260448201526265737360e81b6064820152608401610625565b6001600160a01b0383166000908152602081905260409020548181101561181e5760405162461bcd60e51b815260206004820152602660248201527f45524332303a207472616e7366657220616d6f756e7420657863656564732062604482015265616c616e636560d01b6064820152608401610625565b6001600160a01b03808516600090815260208190526040808220858503905591851681529081208054849290611855908490612258565b92505081905550826001600160a01b0316846001600160a01b03167fddf252ad1be2c89b69c2b068fc378daa952ba7f163c4a11628f55a4df523b3ef846040516118a191815260200190565b60405180910390a3610ec0565b6001600160a01b03821661190e5760405162461bcd60e51b815260206004820152602160248201527f45524332303a206275726e2066726f6d20746865207a65726f206164647265736044820152607360f81b6064820152608401610625565b6001600160a01b038216600090815260208190526040902054818110156119825760405162461bcd60e51b815260206004820152602260248201527f45524332303a206275726e20616d6f756e7420657863656564732062616c616e604482015261636560f01b6064820152608401610625565b6001600160a01b03831660009081526020819052604081208383039055600280548492906119b1908490612400565b90915550506040518281526000906001600160a01b038516907fddf252ad1be2c89b69c2b068fc378daa952ba7f163c4a11628f55a4df523b3ef906020016115ee565b60006116078284612417565b60185460009081805b82811015611b2d5760188181548110611a2457611a246121db565b6000918252602090912001546001600160a01b0316600982600a8110611a4c57611a4c6121db565b0180546001600160a01b0319166001600160a01b0392831617905560205460188054600093929092169163afa99860919085908110611a8d57611a8d6121db565b60009182526020909120015460215460405160e084901b6001600160e01b03191681526001600160a01b03928316600482015291166024820152604401602060405180830381865afa158015611ae7573d6000803e3d6000fd5b505050506040513d601f19601f82011682018060405250810190611b0b91906121f1565b9050611b1783826115fb565b9250508080611b2590612220565b915050611a09565b50601b54611b3c908290611660565b6007819055611b4b90856119f4565b949350505050565b6001600160a01b038216611ba95760405162461bcd60e51b815260206004820152601f60248201527f45524332303a206d696e7420746f20746865207a65726f2061646472657373006044820152606401610625565b8060026000828254611bbb9190612258565b90915550506001600160a01b03821660009081526020819052604081208054839290611be8908490612258565b90915550506040518181526001600160a01b038316906000907fddf252ad1be2c89b69c2b068fc378daa952ba7f163c4a11628f55a4df523b3ef9060200160405180910390a35050565b600580546001600160a01b038381166001600160a01b0319831681179093556040519116919082907f8be0079c531659141344cd1fd0a4f28419497f9722a3daafe3b4186f6b6457e090600090a35050565b604080516001600160a01b0385811660248301528481166044830152606480830185905283518084039091018152608490920183526020820180516001600160e01b03166323b872dd60e01b1790529151600092839290881691611ce89190612436565b6000604051808303816000865af19150503d8060008114611d25576040519150601f19603f3d011682016040523d82523d6000602084013e611d2a565b606091505b5091509150818015611d54575080511580611d54575080806020019051810190611d549190612452565b611dba5760405162461bcd60e51b815260206004820152603160248201527f5472616e7366657248656c7065723a3a7472616e7366657246726f6d3a207472604482015270185b9cd9995c919c9bdb4819985a5b1959607a1b6064820152608401610625565b505050505050565b604080516001600160a01b038481166024830152604480830185905283518084039091018152606490920183526020820180516001600160e01b031663095ea7b360e01b1790529151600092839290871691611e1e9190612436565b6000604051808303816000865af19150503d8060008114611e5b576040519150601f19603f3d011682016040523d82523d6000602084013e611e60565b606091505b5091509150818015611e8a575080511580611e8a575080806020019051810190611e8a9190612452565b610c735760405162461bcd60e51b815260206004820152602b60248201527f5472616e7366657248656c7065723a3a73616665417070726f76653a2061707060448201526a1c9bdd994819985a5b195960aa1b6064820152608401610625565b60005b83811015611f05578181015183820152602001611eed565b83811115610ec05750506000910152565b6020815260008251806020840152611f35816040850160208701611eea565b601f01601f19169190910160400192915050565b6001600160a01b0381168114610a4b57600080fd5b60008060408385031215611f7157600080fd5b8235611f7c81611f49565b946020939093013593505050565b600080600060608486031215611f9f57600080fd5b8335611faa81611f49565b92506020840135611fba81611f49565b929592945050506040919091013590565b60008060408385031215611fde57600080fd5b50508035926020909101359150565b600060208284031215611fff57600080fd5b5035919050565b60006020828403121561201857600080fd5b813561160781611f49565b60008083601f84011261203557600080fd5b50813567ffffffffffffffff81111561204d57600080fd5b6020830191508360208260051b850101111561206857600080fd5b9250929050565b6000806000806040858703121561208557600080fd5b843567ffffffffffffffff8082111561209d57600080fd5b6120a988838901612023565b909650945060208701359150808211156120c257600080fd5b506120cf87828801612023565b95989497509550505050565b600081518084526020808501945080840160005b838110156121145781516001600160a01b0316875295820195908201906001016120ef565b509495945050505050565b60208152600061160760208301846120db565b6000806040838503121561214557600080fd5b823561215081611f49565b9150602083013561216081611f49565b809150509250929050565b600181811c9082168061217f57607f821691505b602082108114156121a057634e487b7160e01b600052602260045260246000fd5b50919050565b6020808252818101527f4f776e61626c653a2063616c6c6572206973206e6f7420746865206f776e6572604082015260600190565b634e487b7160e01b600052603260045260246000fd5b60006020828403121561220357600080fd5b5051919050565b634e487b7160e01b600052601160045260246000fd5b60006000198214156122345761223461220a565b5060010190565b60006020828403121561224d57600080fd5b815161160781611f49565b6000821982111561226b5761226b61220a565b500190565b84815260806020820152600061228960808301866120db565b6001600160a01b03949094166040830152506060015292915050565b634e487b7160e01b600052604160045260246000fd5b600060208083850312156122ce57600080fd5b825167ffffffffffffffff808211156122e657600080fd5b818501915085601f8301126122fa57600080fd5b81518181111561230c5761230c6122a5565b8060051b604051601f19603f83011681018181108582111715612331576123316122a5565b60405291825284820192508381018501918883111561234f57600080fd5b938501935b8285101561236d57845184529385019392850192612354565b98975050505050505050565b85815284602082015260a06040820152600061239860a08301866120db565b6001600160a01b0394909416606083015250608001529392505050565b6000602082840312156123c757600080fd5b81356001600160601b038116811461160757600080fd5b6000826123fb57634e487b7160e01b600052601260045260246000fd5b500490565b6000828210156124125761241261220a565b500390565b60008160001904831182151516156124315761243161220a565b500290565b60008251612448818460208701611eea565b9190910192915050565b60006020828403121561246457600080fd5b8151801515811461160757600080fdfea2646970667358221220135a8d60a7c2996b6d6a41be25730b4878f10a8ced8c8e3f2b2fff2e1131a66764736f6c634300080a0033",
  "linkReferences": {},
  "deployedLinkReferences": {}
}